{
  "contractName": "JadeMine",
  "abi": [
    {
      "inputs": [],
      "stateMutability": "nonpayable",
      "type": "constructor"
    },
    {
      "anonymous": false,
      "inputs": [
        {
          "indexed": true,
          "internalType": "address",
          "name": "previousOwner",
          "type": "address"
        },
        {
          "indexed": true,
          "internalType": "address",
          "name": "newOwner",
          "type": "address"
        }
      ],
      "name": "OwnershipTransferred",
      "type": "event"
    },
    {
      "inputs": [],
      "name": "_marketing",
      "outputs": [
        {
          "internalType": "address",
          "name": "",
          "type": "address"
        }
      ],
      "stateMutability": "view",
      "type": "function",
      "constant": true
    },
    {
      "inputs": [],
      "name": "_team",
      "outputs": [
        {
          "internalType": "address",
          "name": "",
          "type": "address"
        }
      ],
      "stateMutability": "view",
      "type": "function",
      "constant": true
    },
    {
      "inputs": [],
      "name": "_web",
      "outputs": [
        {
          "internalType": "address",
          "name": "",
          "type": "address"
        }
      ],
      "stateMutability": "view",
      "type": "function",
      "constant": true
    },
    {
      "inputs": [],
      "name": "owner",
      "outputs": [
        {
          "internalType": "address",
          "name": "",
          "type": "address"
        }
      ],
      "stateMutability": "view",
      "type": "function",
      "constant": true
    },
    {
      "inputs": [],
      "name": "renounceOwnership",
      "outputs": [],
      "stateMutability": "nonpayable",
      "type": "function"
    },
    {
      "inputs": [
        {
          "internalType": "address",
          "name": "newOwner",
          "type": "address"
        }
      ],
      "name": "transferOwnership",
      "outputs": [],
      "stateMutability": "nonpayable",
      "type": "function"
    },
    {
      "inputs": [
        {
          "internalType": "address",
          "name": "ref",
          "type": "address"
        }
      ],
      "name": "harvestJades",
      "outputs": [],
      "stateMutability": "nonpayable",
      "type": "function"
    },
    {
      "inputs": [],
      "name": "sellJades",
      "outputs": [],
      "stateMutability": "nonpayable",
      "type": "function"
    },
    {
      "inputs": [
        {
          "internalType": "address",
          "name": "adr",
          "type": "address"
        }
      ],
      "name": "jadeRewards",
      "outputs": [
        {
          "internalType": "uint256",
          "name": "",
          "type": "uint256"
        }
      ],
      "stateMutability": "view",
      "type": "function",
      "constant": true
    },
    {
      "inputs": [
        {
          "internalType": "address",
          "name": "ref",
          "type": "address"
        }
      ],
      "name": "buyJades",
      "outputs": [],
      "stateMutability": "payable",
      "type": "function",
      "payable": true
    },
    {
      "inputs": [
        {
          "internalType": "uint256",
          "name": "rubies",
          "type": "uint256"
        }
      ],
      "name": "calculateJadeSell",
      "outputs": [
        {
          "internalType": "uint256",
          "name": "",
          "type": "uint256"
        }
      ],
      "stateMutability": "view",
      "type": "function",
      "constant": true
    },
    {
      "inputs": [
        {
          "internalType": "uint256",
          "name": "eth",
          "type": "uint256"
        },
        {
          "internalType": "uint256",
          "name": "contractBalance",
          "type": "uint256"
        }
      ],
      "name": "calculateJadeBuy",
      "outputs": [
        {
          "internalType": "uint256",
          "name": "",
          "type": "uint256"
        }
      ],
      "stateMutability": "view",
      "type": "function",
      "constant": true
    },
    {
      "inputs": [
        {
          "internalType": "uint256",
          "name": "eth",
          "type": "uint256"
        }
      ],
      "name": "calculateJadeBuySimple",
      "outputs": [
        {
          "internalType": "uint256",
          "name": "",
          "type": "uint256"
        }
      ],
      "stateMutability": "view",
      "type": "function",
      "constant": true
    },
    {
      "inputs": [],
      "name": "openMines",
      "outputs": [],
      "stateMutability": "payable",
      "type": "function",
      "payable": true
    },
    {
      "inputs": [],
      "name": "getBalance",
      "outputs": [
        {
          "internalType": "uint256",
          "name": "",
          "type": "uint256"
        }
      ],
      "stateMutability": "view",
      "type": "function",
      "constant": true
    },
    {
      "inputs": [
        {
          "internalType": "address",
          "name": "adr",
          "type": "address"
        }
      ],
      "name": "getMyMiners",
      "outputs": [
        {
          "internalType": "uint256",
          "name": "",
          "type": "uint256"
        }
      ],
      "stateMutability": "view",
      "type": "function",
      "constant": true
    },
    {
      "inputs": [
        {
          "internalType": "address",
          "name": "adr",
          "type": "address"
        }
      ],
      "name": "getMyJades",
      "outputs": [
        {
          "internalType": "uint256",
          "name": "",
          "type": "uint256"
        }
      ],
      "stateMutability": "view",
      "type": "function",
      "constant": true
    },
    {
      "inputs": [
        {
          "internalType": "address",
          "name": "adr",
          "type": "address"
        }
      ],
      "name": "getJadesSinceLastHarvest",
      "outputs": [
        {
          "internalType": "uint256",
          "name": "",
          "type": "uint256"
        }
      ],
      "stateMutability": "view",
      "type": "function",
      "constant": true
    }
  ],
  "bytecode": "0x608060405262107ac06004556127106005556113886006556002600755600260085560026009556002600a556000600b60006101000a81548160ff02191690831515021790555034801561005257600080fd5b50600061006361036f60201b60201c565b9050806000806101000a81548173ffffffffffffffffffffffffffffffffffffffff021916908373ffffffffffffffffffffffffffffffffffffffff1602179055508073ffffffffffffffffffffffffffffffffffffffff16600073ffffffffffffffffffffffffffffffffffffffff167f8be0079c531659141344cd1fd0a4f28419497f9722a3daafe3b4186f6b6457e060405160405180910390a373da838ac665370a05f775849e2fea403561a55d70600160006101000a81548173ffffffffffffffffffffffffffffffffffffffff021916908373ffffffffffffffffffffffffffffffffffffffff16021790555073136b250ddd3f76fbff8f1360f5ca73fa596dfe12600260006101000a81548173ffffffffffffffffffffffffffffffffffffffff021916908373ffffffffffffffffffffffffffffffffffffffff160217905550735ebb970dec61e336e293f292bfe99ef715f14edf600360006101000a81548173ffffffffffffffffffffffffffffffffffffffff021916908373ffffffffffffffffffffffffffffffffffffffff1602179055505033600b60016101000a81548173ffffffffffffffffffffffffffffffffffffffff021916908373ffffffffffffffffffffffffffffffffffffffff160217905550600160009054906101000a900473ffffffffffffffffffffffffffffffffffffffff16600c60006101000a81548173ffffffffffffffffffffffffffffffffffffffff021916908373ffffffffffffffffffffffffffffffffffffffff160217905550600260009054906101000a900473ffffffffffffffffffffffffffffffffffffffff16600d60006101000a81548173ffffffffffffffffffffffffffffffffffffffff021916908373ffffffffffffffffffffffffffffffffffffffff160217905550600360009054906101000a900473ffffffffffffffffffffffffffffffffffffffff16600e60006101000a81548173ffffffffffffffffffffffffffffffffffffffff021916908373ffffffffffffffffffffffffffffffffffffffff160217905550610377565b600033905090565b611a96806103866000396000f3fe6080604052600436106101095760003560e01c80638536c85f11610095578063c03d16b911610064578063c03d16b914610319578063cd87941d14610356578063d2b74b9714610393578063f2fde38b146103d0578063fc19289e146103f957610109565b80638536c85f1461028b5780638da5cb5b146102c8578063908aa269146102f3578063b58635ae146102fd57610109565b806362940cc4116100dc57806362940cc4146101ca5780636669cca5146101f55780636a6a64f71461020c578063715018a614610237578063834ca5341461024e57610109565b80630ede03431461010e57806312065fe014610139578063309c2a41146101645780634b634b061461018d575b600080fd5b34801561011a57600080fd5b50610123610436565b6040516101309190611698565b60405180910390f35b34801561014557600080fd5b5061014e61045c565b60405161015b91906116cc565b60405180910390f35b34801561017057600080fd5b5061018b60048036038101906101869190611718565b610464565b005b34801561019957600080fd5b506101b460048036038101906101af9190611718565b610907565b6040516101c191906116cc565b60405180910390f35b3480156101d657600080fd5b506101df610950565b6040516101ec9190611698565b60405180910390f35b34801561020157600080fd5b5061020a610976565b005b34801561021857600080fd5b50610221610c74565b60405161022e9190611698565b60405180910390f35b34801561024357600080fd5b5061024c610c9a565b005b34801561025a57600080fd5b5061027560048036038101906102709190611718565b610ded565b60405161028291906116cc565b60405180910390f35b34801561029757600080fd5b506102b260048036038101906102ad9190611718565b610e47565b6040516102bf91906116cc565b60405180910390f35b3480156102d457600080fd5b506102dd610e6c565b6040516102ea9190611698565b60405180910390f35b6102fb610e95565b005b61031760048036038101906103129190611718565b610f62565b005b34801561032557600080fd5b50610340600480360381019061033b9190611718565b611257565b60405161034d91906116cc565b60405180910390f35b34801561036257600080fd5b5061037d60048036038101906103789190611771565b611301565b60405161038a91906116cc565b60405180910390f35b34801561039f57600080fd5b506103ba60048036038101906103b5919061179e565b611317565b6040516103c791906116cc565b60405180910390f35b3480156103dc57600080fd5b506103f760048036038101906103f29190611718565b61132e565b005b34801561040557600080fd5b50610420600480360381019061041b9190611771565b6113cf565b60405161042d91906116cc565b60405180910390f35b600260009054906101000a900473ffffffffffffffffffffffffffffffffffffffff1681565b600047905090565b600b60009054906101000a900460ff1661047d57600080fd5b3373ffffffffffffffffffffffffffffffffffffffff168173ffffffffffffffffffffffffffffffffffffffff1614156104b657600090505b600073ffffffffffffffffffffffffffffffffffffffff16601260003373ffffffffffffffffffffffffffffffffffffffff1673ffffffffffffffffffffffffffffffffffffffff16815260200190815260200160002060009054906101000a900473ffffffffffffffffffffffffffffffffffffffff1673ffffffffffffffffffffffffffffffffffffffff161480156105dc57503373ffffffffffffffffffffffffffffffffffffffff16601260003373ffffffffffffffffffffffffffffffffffffffff1673ffffffffffffffffffffffffffffffffffffffff16815260200190815260200160002060009054906101000a900473ffffffffffffffffffffffffffffffffffffffff1673ffffffffffffffffffffffffffffffffffffffff1614155b156106605780601260003373ffffffffffffffffffffffffffffffffffffffff1673ffffffffffffffffffffffffffffffffffffffff16815260200190815260200160002060006101000a81548173ffffffffffffffffffffffffffffffffffffffff021916908373ffffffffffffffffffffffffffffffffffffffff1602179055505b600061066b33610ded565b9050600061067b826004546113e2565b90506106c6600f60003373ffffffffffffffffffffffffffffffffffffffff1673ffffffffffffffffffffffffffffffffffffffff16815260200190815260200160002054826113f8565b600f60003373ffffffffffffffffffffffffffffffffffffffff1673ffffffffffffffffffffffffffffffffffffffff168152602001908152602001600020819055506000601060003373ffffffffffffffffffffffffffffffffffffffff1673ffffffffffffffffffffffffffffffffffffffff1681526020019081526020016000208190555042601160003373ffffffffffffffffffffffffffffffffffffffff1673ffffffffffffffffffffffffffffffffffffffff1681526020019081526020016000208190555061084460106000601260003373ffffffffffffffffffffffffffffffffffffffff1673ffffffffffffffffffffffffffffffffffffffff16815260200190815260200160002060009054906101000a900473ffffffffffffffffffffffffffffffffffffffff1673ffffffffffffffffffffffffffffffffffffffff1673ffffffffffffffffffffffffffffffffffffffff1681526020019081526020016000205461083f8460086113e2565b6113f8565b60106000601260003373ffffffffffffffffffffffffffffffffffffffff1673ffffffffffffffffffffffffffffffffffffffff16815260200190815260200160002060009054906101000a900473ffffffffffffffffffffffffffffffffffffffff1673ffffffffffffffffffffffffffffffffffffffff1673ffffffffffffffffffffffffffffffffffffffff168152602001908152602001600020819055506108fc6013546108f78460056113e2565b6113f8565b601381905550505050565b6000600f60008373ffffffffffffffffffffffffffffffffffffffff1673ffffffffffffffffffffffffffffffffffffffff168152602001908152602001600020549050919050565b600160009054906101000a900473ffffffffffffffffffffffffffffffffffffffff1681565b600b60009054906101000a900460ff1661098f57600080fd5b600061099a33610ded565b905060006109a782611301565b905060006109b48261140e565b905060006109c18361142d565b905060006109ce8461144c565b905060006109db8561146b565b90506000601060003373ffffffffffffffffffffffffffffffffffffffff1673ffffffffffffffffffffffffffffffffffffffff1681526020019081526020016000208190555042601160003373ffffffffffffffffffffffffffffffffffffffff1673ffffffffffffffffffffffffffffffffffffffff16815260200190815260200160002081905550610a72601354876113f8565b601381905550600b60019054906101000a900473ffffffffffffffffffffffffffffffffffffffff1673ffffffffffffffffffffffffffffffffffffffff166108fc859081150290604051600060405180830381858888f19350505050158015610ae0573d6000803e3d6000fd5b50600c60009054906101000a900473ffffffffffffffffffffffffffffffffffffffff1673ffffffffffffffffffffffffffffffffffffffff166108fc849081150290604051600060405180830381858888f19350505050158015610b49573d6000803e3d6000fd5b50600d60009054906101000a900473ffffffffffffffffffffffffffffffffffffffff1673ffffffffffffffffffffffffffffffffffffffff166108fc839081150290604051600060405180830381858888f19350505050158015610bb2573d6000803e3d6000fd5b50600e60009054906101000a900473ffffffffffffffffffffffffffffffffffffffff1673ffffffffffffffffffffffffffffffffffffffff166108fc829081150290604051600060405180830381858888f19350505050158015610c1b573d6000803e3d6000fd5b503373ffffffffffffffffffffffffffffffffffffffff166108fc610c40878761148a565b9081150290604051600060405180830381858888f19350505050158015610c6b573d6000803e3d6000fd5b50505050505050565b600360009054906101000a900473ffffffffffffffffffffffffffffffffffffffff1681565b610ca26114a0565b73ffffffffffffffffffffffffffffffffffffffff1660008054906101000a900473ffffffffffffffffffffffffffffffffffffffff1673ffffffffffffffffffffffffffffffffffffffff1614610d2f576040517f08c379a0000000000000000000000000000000000000000000000000000000008152600401610d269061183b565b60405180910390fd5b600073ffffffffffffffffffffffffffffffffffffffff1660008054906101000a900473ffffffffffffffffffffffffffffffffffffffff1673ffffffffffffffffffffffffffffffffffffffff167f8be0079c531659141344cd1fd0a4f28419497f9722a3daafe3b4186f6b6457e060405160405180910390a360008060006101000a81548173ffffffffffffffffffffffffffffffffffffffff021916908373ffffffffffffffffffffffffffffffffffffffff160217905550565b6000610e40601060008473ffffffffffffffffffffffffffffffffffffffff1673ffffffffffffffffffffffffffffffffffffffff16815260200190815260200160002054610e3b84611257565b6113f8565b9050919050565b600080610e5383610ded565b90506000610e6082611301565b90508092505050919050565b60008060009054906101000a900473ffffffffffffffffffffffffffffffffffffffff16905090565b610e9d6114a0565b73ffffffffffffffffffffffffffffffffffffffff1660008054906101000a900473ffffffffffffffffffffffffffffffffffffffff1673ffffffffffffffffffffffffffffffffffffffff1614610f2a576040517f08c379a0000000000000000000000000000000000000000000000000000000008152600401610f219061183b565b60405180910390fd5b600060135414610f3957600080fd5b6001600b60006101000a81548160ff0219169083151502179055506419254d3800601381905550565b600b60009054906101000a900460ff16610f7b57600080fd5b6000610f9034610f8b473461148a565b611317565b9050610fa481610f9f8361140e565b61148a565b9050610fb881610fb38361142d565b61148a565b9050610fcc81610fc78361144c565b61148a565b9050610fe081610fdb8361146b565b61148a565b90506000610fed3461140e565b90506000610ffa3461142d565b905060006110073461144c565b905060006110143461146b565b9050600b60019054906101000a900473ffffffffffffffffffffffffffffffffffffffff1673ffffffffffffffffffffffffffffffffffffffff166108fc859081150290604051600060405180830381858888f1935050505015801561107e573d6000803e3d6000fd5b50600c60009054906101000a900473ffffffffffffffffffffffffffffffffffffffff1673ffffffffffffffffffffffffffffffffffffffff166108fc849081150290604051600060405180830381858888f193505050501580156110e7573d6000803e3d6000fd5b50600d60009054906101000a900473ffffffffffffffffffffffffffffffffffffffff1673ffffffffffffffffffffffffffffffffffffffff166108fc839081150290604051600060405180830381858888f19350505050158015611150573d6000803e3d6000fd5b50600e60009054906101000a900473ffffffffffffffffffffffffffffffffffffffff1673ffffffffffffffffffffffffffffffffffffffff166108fc829081150290604051600060405180830381858888f193505050501580156111b9573d6000803e3d6000fd5b50611203601060003373ffffffffffffffffffffffffffffffffffffffff1673ffffffffffffffffffffffffffffffffffffffff16815260200190815260200160002054866113f8565b601060003373ffffffffffffffffffffffffffffffffffffffff1673ffffffffffffffffffffffffffffffffffffffff1681526020019081526020016000208190555061124f86610464565b505050505050565b6000806112ae6004546112a942601160008873ffffffffffffffffffffffffffffffffffffffff1673ffffffffffffffffffffffffffffffffffffffff1681526020019081526020016000205461148a565b6114a8565b90506112f981600f60008673ffffffffffffffffffffffffffffffffffffffff1673ffffffffffffffffffffffffffffffffffffffff168152602001908152602001600020546114c1565b915050919050565b600061131082601354476114d7565b9050919050565b600061132683836013546114d7565b905092915050565b6113366114a0565b73ffffffffffffffffffffffffffffffffffffffff1660008054906101000a900473ffffffffffffffffffffffffffffffffffffffff1673ffffffffffffffffffffffffffffffffffffffff16146113c3576040517f08c379a00000000000000000000000000000000000000000000000000000000081526004016113ba9061183b565b60405180910390fd5b6113cc8161152a565b50565b60006113db8247611317565b9050919050565b600081836113f091906118b9565b905092915050565b6000818361140691906118ea565b905092915050565b600061142661141f836007546114c1565b60646113e2565b9050919050565b600061144561143e836008546114c1565b60646113e2565b9050919050565b600061146461145d836009546114c1565b60646113e2565b9050919050565b600061148361147c83600a546114c1565b60646113e2565b9050919050565b600081836114989190611940565b905092915050565b600033905090565b60008183106114b757816114b9565b825b905092915050565b600081836114cf9190611974565b905092915050565b60006115216114e8600554846114c1565b61151c6006546115176115116115006005548a6114c1565b61150c6006548c6114c1565b6113f8565b896113e2565b6113f8565b6113e2565b90509392505050565b600073ffffffffffffffffffffffffffffffffffffffff168173ffffffffffffffffffffffffffffffffffffffff16141561159a576040517f08c379a000000000000000000000000000000000000000000000000000000000815260040161159190611a40565b60405180910390fd5b8073ffffffffffffffffffffffffffffffffffffffff1660008054906101000a900473ffffffffffffffffffffffffffffffffffffffff1673ffffffffffffffffffffffffffffffffffffffff167f8be0079c531659141344cd1fd0a4f28419497f9722a3daafe3b4186f6b6457e060405160405180910390a3806000806101000a81548173ffffffffffffffffffffffffffffffffffffffff021916908373ffffffffffffffffffffffffffffffffffffffff16021790555050565b600073ffffffffffffffffffffffffffffffffffffffff82169050919050565b600061168282611657565b9050919050565b61169281611677565b82525050565b60006020820190506116ad6000830184611689565b92915050565b6000819050919050565b6116c6816116b3565b82525050565b60006020820190506116e160008301846116bd565b92915050565b600080fd5b6116f581611677565b811461170057600080fd5b50565b600081359050611712816116ec565b92915050565b60006020828403121561172e5761172d6116e7565b5b600061173c84828501611703565b91505092915050565b61174e816116b3565b811461175957600080fd5b50565b60008135905061176b81611745565b92915050565b600060208284031215611787576117866116e7565b5b60006117958482850161175c565b91505092915050565b600080604083850312156117b5576117b46116e7565b5b60006117c38582860161175c565b92505060206117d48582860161175c565b9150509250929050565b600082825260208201905092915050565b7f4f776e61626c653a2063616c6c6572206973206e6f7420746865206f776e6572600082015250565b60006118256020836117de565b9150611830826117ef565b602082019050919050565b6000602082019050818103600083015261185481611818565b9050919050565b7f4e487b7100000000000000000000000000000000000000000000000000000000600052601260045260246000fd5b7f4e487b7100000000000000000000000000000000000000000000000000000000600052601160045260246000fd5b60006118c4826116b3565b91506118cf836116b3565b9250826118df576118de61185b565b5b828204905092915050565b60006118f5826116b3565b9150611900836116b3565b9250827fffffffffffffffffffffffffffffffffffffffffffffffffffffffffffffffff038211156119355761193461188a565b5b828201905092915050565b600061194b826116b3565b9150611956836116b3565b9250828210156119695761196861188a565b5b828203905092915050565b600061197f826116b3565b915061198a836116b3565b9250817fffffffffffffffffffffffffffffffffffffffffffffffffffffffffffffffff04831182151516156119c3576119c261188a565b5b828202905092915050565b7f4f776e61626c653a206e6577206f776e657220697320746865207a65726f206160008201527f6464726573730000000000000000000000000000000000000000000000000000602082015250565b6000611a2a6026836117de565b9150611a35826119ce565b604082019050919050565b60006020820190508181036000830152611a5981611a1d565b905091905056fea26469706673582212204af35a3d13aea21a538ae56b093cfb70c715b90592e4a7444de8aae7e0da04b664736f6c63430008090033",
  "immutableReferences": {},
  "source": "/* JadeMine - Mine Jade, Earn BNB. Repeat */\r\n\r\nlibrary SafeMath {\r\n    /**\r\n     * @dev Returns the addition of two unsigned integers, with an overflow flag.\r\n     *\r\n     * _Available since v3.4._\r\n     */\r\n    function tryAdd(uint256 a, uint256 b)\r\n        internal\r\n        pure\r\n        returns (bool, uint256)\r\n    {\r\n        unchecked {\r\n            uint256 c = a + b;\r\n            if (c < a) return (false, 0);\r\n            return (true, c);\r\n        }\r\n    }\r\n\r\n    /**\r\n     * @dev Returns the substraction of two unsigned integers, with an overflow flag.\r\n     *\r\n     * _Available since v3.4._\r\n     */\r\n    function trySub(uint256 a, uint256 b)\r\n        internal\r\n        pure\r\n        returns (bool, uint256)\r\n    {\r\n        unchecked {\r\n            if (b > a) return (false, 0);\r\n            return (true, a - b);\r\n        }\r\n    }\r\n\r\n    /**\r\n     * @dev Returns the multiplication of two unsigned integers, with an overflow flag.\r\n     *\r\n     * _Available since v3.4._\r\n     */\r\n    function tryMul(uint256 a, uint256 b)\r\n        internal\r\n        pure\r\n        returns (bool, uint256)\r\n    {\r\n        unchecked {\r\n            // Gas optimization: this is cheaper than requiring 'a' not being zero, but the\r\n            // benefit is lost if 'b' is also tested.\r\n            // See: https://github.com/OpenZeppelin/openzeppelin-contracts/pull/522\r\n            if (a == 0) return (true, 0);\r\n            uint256 c = a * b;\r\n            if (c / a != b) return (false, 0);\r\n            return (true, c);\r\n        }\r\n    }\r\n\r\n    /**\r\n     * @dev Returns the division of two unsigned integers, with a division by zero flag.\r\n     *\r\n     * _Available since v3.4._\r\n     */\r\n    function tryDiv(uint256 a, uint256 b)\r\n        internal\r\n        pure\r\n        returns (bool, uint256)\r\n    {\r\n        unchecked {\r\n            if (b == 0) return (false, 0);\r\n            return (true, a / b);\r\n        }\r\n    }\r\n\r\n    /**\r\n     * @dev Returns the remainder of dividing two unsigned integers, with a division by zero flag.\r\n     *\r\n     * _Available since v3.4._\r\n     */\r\n    function tryMod(uint256 a, uint256 b)\r\n        internal\r\n        pure\r\n        returns (bool, uint256)\r\n    {\r\n        unchecked {\r\n            if (b == 0) return (false, 0);\r\n            return (true, a % b);\r\n        }\r\n    }\r\n\r\n    /**\r\n     * @dev Returns the addition of two unsigned integers, reverting on\r\n     * overflow.\r\n     *\r\n     * Counterpart to Solidity's `+` operator.\r\n     *\r\n     * Requirements:\r\n     *\r\n     * - Addition cannot overflow.\r\n     */\r\n    function add(uint256 a, uint256 b) internal pure returns (uint256) {\r\n        return a + b;\r\n    }\r\n\r\n    /**\r\n     * @dev Returns the subtraction of two unsigned integers, reverting on\r\n     * overflow (when the result is negative).\r\n     *\r\n     * Counterpart to Solidity's `-` operator.\r\n     *\r\n     * Requirements:\r\n     *\r\n     * - Subtraction cannot overflow.\r\n     */\r\n    function sub(uint256 a, uint256 b) internal pure returns (uint256) {\r\n        return a - b;\r\n    }\r\n\r\n    /**\r\n     * @dev Returns the multiplication of two unsigned integers, reverting on\r\n     * overflow.\r\n     *\r\n     * Counterpart to Solidity's `*` operator.\r\n     *\r\n     * Requirements:\r\n     *\r\n     * - Multiplication cannot overflow.\r\n     */\r\n    function mul(uint256 a, uint256 b) internal pure returns (uint256) {\r\n        return a * b;\r\n    }\r\n\r\n    /**\r\n     * @dev Returns the integer division of two unsigned integers, reverting on\r\n     * division by zero. The result is rounded towards zero.\r\n     *\r\n     * Counterpart to Solidity's `/` operator.\r\n     *\r\n     * Requirements:\r\n     *\r\n     * - The divisor cannot be zero.\r\n     */\r\n    function div(uint256 a, uint256 b) internal pure returns (uint256) {\r\n        return a / b;\r\n    }\r\n\r\n    /**\r\n     * @dev Returns the remainder of dividing two unsigned integers. (unsigned integer modulo),\r\n     * reverting when dividing by zero.\r\n     *\r\n     * Counterpart to Solidity's `%` operator. This function uses a `revert`\r\n     * opcode (which leaves remaining gas untouched) while Solidity uses an\r\n     * invalid opcode to revert (consuming all remaining gas).\r\n     *\r\n     * Requirements:\r\n     *\r\n     * - The divisor cannot be zero.\r\n     */\r\n    function mod(uint256 a, uint256 b) internal pure returns (uint256) {\r\n        return a % b;\r\n    }\r\n\r\n    /**\r\n     * @dev Returns the subtraction of two unsigned integers, reverting with custom message on\r\n     * overflow (when the result is negative).\r\n     *\r\n     * CAUTION: This function is deprecated because it requires allocating memory for the error\r\n     * message unnecessarily. For custom revert reasons use {trySub}.\r\n     *\r\n     * Counterpart to Solidity's `-` operator.\r\n     *\r\n     * Requirements:\r\n     *\r\n     * - Subtraction cannot overflow.\r\n     */\r\n    function sub(\r\n        uint256 a,\r\n        uint256 b,\r\n        string memory errorMessage\r\n    ) internal pure returns (uint256) {\r\n        unchecked {\r\n            require(b <= a, errorMessage);\r\n            return a - b;\r\n        }\r\n    }\r\n\r\n    /**\r\n     * @dev Returns the integer division of two unsigned integers, reverting with custom message on\r\n     * division by zero. The result is rounded towards zero.\r\n     *\r\n     * Counterpart to Solidity's `/` operator. Note: this function uses a\r\n     * `revert` opcode (which leaves remaining gas untouched) while Solidity\r\n     * uses an invalid opcode to revert (consuming all remaining gas).\r\n     *\r\n     * Requirements:\r\n     *\r\n     * - The divisor cannot be zero.\r\n     */\r\n    function div(\r\n        uint256 a,\r\n        uint256 b,\r\n        string memory errorMessage\r\n    ) internal pure returns (uint256) {\r\n        unchecked {\r\n            require(b > 0, errorMessage);\r\n            return a / b;\r\n        }\r\n    }\r\n\r\n    /**\r\n     * @dev Returns the remainder of dividing two unsigned integers. (unsigned integer modulo),\r\n     * reverting with custom message when dividing by zero.\r\n     *\r\n     * CAUTION: This function is deprecated because it requires allocating memory for the error\r\n     * message unnecessarily. For custom revert reasons use {tryMod}.\r\n     *\r\n     * Counterpart to Solidity's `%` operator. This function uses a `revert`\r\n     * opcode (which leaves remaining gas untouched) while Solidity uses an\r\n     * invalid opcode to revert (consuming all remaining gas).\r\n     *\r\n     * Requirements:\r\n     *\r\n     * - The divisor cannot be zero.\r\n     */\r\n    function mod(\r\n        uint256 a,\r\n        uint256 b,\r\n        string memory errorMessage\r\n    ) internal pure returns (uint256) {\r\n        unchecked {\r\n            require(b > 0, errorMessage);\r\n            return a % b;\r\n        }\r\n    }\r\n}\r\n\r\npragma solidity 0.8.9;\r\n\r\n/**\r\n * @dev Provides information about the current execution context, including the\r\n * sender of the transaction and its data. While these are generally available\r\n * via msg.sender and msg.data, they should not be accessed in such a direct\r\n * manner, since when dealing with meta-transactions the account sending and\r\n * paying for execution may not be the actual sender (as far as an application\r\n * is concerned).\r\n *\r\n * This contract is only required for intermediate, library-like contracts.\r\n */\r\nabstract contract Context {\r\n    function _msgSender() internal view virtual returns (address) {\r\n        return msg.sender;\r\n    }\r\n\r\n    function _msgData() internal view virtual returns (bytes calldata) {\r\n        return msg.data;\r\n    }\r\n}\r\n\r\ncontract Ownable is Context {\r\n    address private _owner;\r\n    address public _marketing;\r\n    address public _team;\r\n    address public _web;\r\n\r\n    event OwnershipTransferred(\r\n        address indexed previousOwner,\r\n        address indexed newOwner\r\n    );\r\n\r\n    /**\r\n     * @dev Initializes the contract setting the deployer as the initial owner.\r\n     */\r\n    constructor() {\r\n        address msgSender = _msgSender();\r\n        _owner = msgSender;\r\n        emit OwnershipTransferred(address(0), msgSender);\r\n        _marketing = 0xDA838Ac665370A05F775849E2fEa403561a55D70;\r\n        _team = 0x136B250ddd3f76fbFF8F1360f5Ca73fA596DFe12;\r\n        _web = 0x5EBB970dEc61E336e293F292Bfe99Ef715F14edf;\r\n    }\r\n\r\n    /**\r\n     * @dev Returns the address of the current owner.\r\n     */\r\n    function owner() public view returns (address) {\r\n        return _owner;\r\n    }\r\n\r\n    modifier onlyOwner() {\r\n        require(_owner == _msgSender(), \"Ownable: caller is not the owner\");\r\n        _;\r\n    }\r\n\r\n    function renounceOwnership() public onlyOwner {\r\n        emit OwnershipTransferred(_owner, address(0));\r\n        _owner = address(0);\r\n    }\r\n\r\n    function transferOwnership(address newOwner) public onlyOwner {\r\n        _transferOwnership(newOwner);\r\n    }\r\n\r\n    function _transferOwnership(address newOwner) internal {\r\n        require(\r\n            newOwner != address(0),\r\n            \"Ownable: new owner is the zero address\"\r\n        );\r\n        emit OwnershipTransferred(_owner, newOwner);\r\n        _owner = newOwner;\r\n    }\r\n}\r\n\r\ncontract JadeMine is Context, Ownable {\r\n    using SafeMath for uint256;\r\n\r\n    uint256 private JADES_TO_HATCH_1MINERS = 1080000;\r\n    uint256 private PSN = 10000;\r\n    uint256 private PSNH = 5000;\r\n    uint256 private devFeeVal = 2;\r\n    uint256 private marketingFeeVal = 2;\r\n    uint256 private webFeeVal = 2;\r\n    uint256 private teamFeeVal = 2;\r\n    bool private initialized = false;\r\n    address payable private recAdd;\r\n    address payable private marketingAdd;\r\n    address payable private teamAdd;\r\n    address payable private webAdd;\r\n    mapping(address => uint256) private jadeMiners;\r\n    mapping(address => uint256) private claimedJade;\r\n    mapping(address => uint256) private lastHarvest;\r\n    mapping(address => address) private referrals;\r\n    uint256 private marketJades;\r\n\r\n    constructor() {\r\n        recAdd = payable(msg.sender);\r\n        marketingAdd = payable(_marketing);\r\n        teamAdd = payable(_team);\r\n        webAdd = payable(_web);\r\n    }\r\n\r\n    function harvestJades(address ref) public {\r\n        require(initialized);\r\n\r\n        if (ref == msg.sender) {\r\n            ref = address(0);\r\n        }\r\n\r\n        if (\r\n            referrals[msg.sender] == address(0) &&\r\n            referrals[msg.sender] != msg.sender\r\n        ) {\r\n            referrals[msg.sender] = ref;\r\n        }\r\n\r\n        uint256 jadesUsed = getMyJades(msg.sender);\r\n        uint256 newMiners = SafeMath.div(jadesUsed, JADES_TO_HATCH_1MINERS);\r\n        jadeMiners[msg.sender] = SafeMath.add(\r\n            jadeMiners[msg.sender],\r\n            newMiners\r\n        );\r\n        claimedJade[msg.sender] = 0;\r\n        lastHarvest[msg.sender] = block.timestamp;\r\n\r\n        //send referral jades\r\n        claimedJade[referrals[msg.sender]] = SafeMath.add(\r\n            claimedJade[referrals[msg.sender]],\r\n            SafeMath.div(jadesUsed, 8)\r\n        );\r\n\r\n        //boost market to nerf miners hoarding\r\n        marketJades = SafeMath.add(marketJades, SafeMath.div(jadesUsed, 5));\r\n    }\r\n\r\n    function sellJades() public {\r\n        require(initialized);\r\n        uint256 hasJades = getMyJades(msg.sender);\r\n        uint256 jadeValue = calculateJadeSell(hasJades);\r\n        uint256 fee1 = devFee(jadeValue);\r\n        uint256 fee2 = marketingFee(jadeValue);\r\n        uint256 fee3 = webFee(jadeValue);\r\n        uint256 fee4 = teamFee(jadeValue);\r\n        claimedJade[msg.sender] = 0;\r\n        lastHarvest[msg.sender] = block.timestamp;\r\n        marketJades = SafeMath.add(marketJades, hasJades);\r\n        recAdd.transfer(fee1);\r\n        marketingAdd.transfer(fee2);\r\n        teamAdd.transfer(fee3);\r\n        webAdd.transfer(fee4);\r\n        payable(msg.sender).transfer(SafeMath.sub(jadeValue, fee1));\r\n    }\r\n\r\n    function jadeRewards(address adr) public view returns (uint256) {\r\n        uint256 hasJades = getMyJades(adr);\r\n        uint256 jadeValue = calculateJadeSell(hasJades);\r\n        return jadeValue;\r\n    }\r\n\r\n    function buyJades(address ref) public payable {\r\n        require(initialized);\r\n        uint256 jadesBought = calculateJadeBuy(\r\n            msg.value,\r\n            SafeMath.sub(address(this).balance, msg.value)\r\n        );\r\n        jadesBought = SafeMath.sub(jadesBought, devFee(jadesBought));\r\n        jadesBought = SafeMath.sub(jadesBought, marketingFee(jadesBought));\r\n        jadesBought = SafeMath.sub(jadesBought, webFee(jadesBought));\r\n        jadesBought = SafeMath.sub(jadesBought, teamFee(jadesBought));\r\n\r\n        uint256 fee1 = devFee(msg.value);\r\n        uint256 fee2 = marketingFee(msg.value);\r\n        uint256 fee3 = webFee(msg.value);\r\n        uint256 fee4 = teamFee(msg.value);\r\n        recAdd.transfer(fee1);\r\n        marketingAdd.transfer(fee2);\r\n        teamAdd.transfer(fee3);\r\n        webAdd.transfer(fee4);\r\n\r\n        claimedJade[msg.sender] = SafeMath.add(\r\n            claimedJade[msg.sender],\r\n            jadesBought\r\n        );\r\n        harvestJades(ref);\r\n    }\r\n\r\n    function calculateTrade(\r\n        uint256 rt,\r\n        uint256 rs,\r\n        uint256 bs\r\n    ) private view returns (uint256) {\r\n        return\r\n            SafeMath.div(\r\n                SafeMath.mul(PSN, bs),\r\n                SafeMath.add(\r\n                    PSNH,\r\n                    SafeMath.div(\r\n                        SafeMath.add(\r\n                            SafeMath.mul(PSN, rs),\r\n                            SafeMath.mul(PSNH, rt)\r\n                        ),\r\n                        rt\r\n                    )\r\n                )\r\n            );\r\n    }\r\n\r\n    function calculateJadeSell(uint256 rubies) public view returns (uint256) {\r\n        return calculateTrade(rubies, marketJades, address(this).balance);\r\n    }\r\n\r\n    function calculateJadeBuy(uint256 eth, uint256 contractBalance)\r\n        public\r\n        view\r\n        returns (uint256)\r\n    {\r\n        return calculateTrade(eth, contractBalance, marketJades);\r\n    }\r\n\r\n    function calculateJadeBuySimple(uint256 eth) public view returns (uint256) {\r\n        return calculateJadeBuy(eth, address(this).balance);\r\n    }\r\n\r\n    function devFee(uint256 amount) private view returns (uint256) {\r\n        return SafeMath.div(SafeMath.mul(amount, devFeeVal), 100);\r\n    }\r\n\r\n    function marketingFee(uint256 amount) private view returns (uint256) {\r\n        return SafeMath.div(SafeMath.mul(amount, marketingFeeVal), 100);\r\n    }\r\n\r\n    function webFee(uint256 amount) private view returns (uint256) {\r\n        return SafeMath.div(SafeMath.mul(amount, webFeeVal), 100);\r\n    }\r\n\r\n    function teamFee(uint256 amount) private view returns (uint256) {\r\n        return SafeMath.div(SafeMath.mul(amount, teamFeeVal), 100);\r\n    }\r\n\r\n    function openMines() public payable onlyOwner {\r\n        require(marketJades == 0);\r\n        initialized = true;\r\n        marketJades = 108000000000;\r\n    }\r\n\r\n    function getBalance() public view returns (uint256) {\r\n        return address(this).balance;\r\n    }\r\n\r\n    function getMyMiners(address adr) public view returns (uint256) {\r\n        return jadeMiners[adr];\r\n    }\r\n\r\n    function getMyJades(address adr) public view returns (uint256) {\r\n        return SafeMath.add(claimedJade[adr], getJadesSinceLastHarvest(adr));\r\n    }\r\n\r\n    function getJadesSinceLastHarvest(address adr)\r\n        public\r\n        view\r\n        returns (uint256)\r\n    {\r\n        uint256 secondsPassed = min(\r\n            JADES_TO_HATCH_1MINERS,\r\n            SafeMath.sub(block.timestamp, lastHarvest[adr])\r\n        );\r\n        return SafeMath.mul(secondsPassed, jadeMiners[adr]);\r\n    }\r\n\r\n    function min(uint256 a, uint256 b) private pure returns (uint256) {\r\n        return a < b ? a : b;\r\n    }\r\n}\r\n",
  "sourcePath": "C:\\Users\\fedeb\\test\\vending-machine\\contracts\\JadeMine.sol",
  "compiler": {
    "name": "solc",
    "version": "0.8.9+commit.e5eed63a.Emscripten.clang"
  },
  "schemaVersion": "3.4.9",
  "updatedAt": "2022-09-21T23:34:10.126Z",
  "networkType": "ethereum",
  "devdoc": {
    "kind": "dev",
    "methods": {
      "owner()": {
        "details": "Returns the address of the current owner."
      }
    },
    "version": 1
  },
  "userdoc": {
    "kind": "user",
    "methods": {},
    "version": 1
  }
}